:020000020000FC
:1000000001E20EBF0FEF0DBF00270E94A7010E9463
:1000100078000E949A0107E800937A0000E40093B8
:100020007C00002788270E94BC000E949A010E9441
:1000300042008030C1F343950E942600F4CF0C9417
:100040001F00813039F40E949A0104C0823011F0FF
:100050000E9497000895813049F0823049F0833042
:1000600051F0843051F0853051F00BC0000009C0D0
:100070000E94020006C0000004C0000002C0000090
:1000800000C0089500917A00006400937A00009106
:100090007A000074E1F70027009178001091790050
:1000A00029EE33E00217130710F523E330E00217BF
:1000B000130710F481E01BC023EC30E00217130794
:1000C00010F482E014C02DE731E00217130710F49A
:1000D00083E00DC02CE232E00217130710F484E035
:1000E00006C027E133E00217130708F485E00895FE
:1000F0000F9302E00F9300E00F9301E00F9308E9E4
:100100000F930E9450020F910F910F910F9102E0F7
:100110000F9302E30F9301E00F930AEA0F930E94FB
:1001200050020F910F910F910F910F9108950F931E
:100130000E949A0100E00F9300E00F930E94760165
:100140000F910F9102E00F9300E00F930E945D0169
:100150000F910F9101E00F9300E00F930E94760141
:100160000F910F9102E00F9302E30F930E945D0144
:100170000F910F910F9108954F935F936F934FE0FD
:100180005FEF6FEF6A95F1F75A95D9F74A95C1F786
:100190006F915F914F91089524414D4420746F20D9
:1001A000746865206D6F6F6E20004469616D6F6EBD
:1001B000642048616E6473000C9469020F932F935E
:1001C0003F93009132000F7D24FD006200933400C4
:1001D00000912C00077F25FD086000932E00009100
:1001E0000001077F26FD08600093020100910001D5
:1001F0000F7E27FD00610093020100910001006461
:100200000093020131E00E942C02009100010F7B5B
:10021000009302013F912F910F9108952F933F93E7
:100220000F93DF93CF93DEB7CDB729850E94DE0011
:1002300032E30E942C0222950E94DE0032E30E94EB
:100240002C02CF91DF910F913F912F9108950F9341
:100250003F932F93DF93CF93DEB7CDB729850091DE
:1002600000010F7D009302012F930E940E012F9138
:10027000243018F432E00E943602CF91DF912F91A2
:100280003F910F9108950F932F93DF93CF93DEB794
:10029000CDB72885009100010062009302012F93E1
:1002A0000E940E012F910091650203950093650253
:1002B000CF91DF912F910F9108950F931F93DF93AB
:1002C000CF93FF93EF93DEB7CDB7FB85EA8511910E
:1002D000103029F01F930E9443011F91F8CFEF9136
:1002E000FF91CF91DF911F910F9108950F931F936D
:1002F000DF93CF93DEB7CDB70885198511301CF099
:1003000011E00C9486010F300CF00FE010936402A2
:1003100000936502113019F410EC0C94900110E870
:10032000010F0F930E9427010F91CF91DF911F9131
:100330000F9108950F9301E00F930E9427010F91F1
:10034000002700936402009365020F9108950F93B4
:100350002F933F930091330000620093330000918C
:1003600032000F7D0093340000912D00086000934F
:100370002D0000912C00077F00932E0000910101B9
:1003800008600093010100910001077F00930201C2
:1003900000910101006100930101009100010F7EB5
:1003A000009302010091010100620093010100919C
:1003B00000010F7D00930201009101010064009390
:1003C0000101009100010F7B009302013FE00E94B8
:1003D000360235E00E94360220E30E94DE0035E05E
:1003E0000E94360220E30E94DE0057E03FE00E94B8
:1003F00036025A95D9F720E30E94DE0032E30E94CC
:100400002C0220E20E94DE0032E30E942C0208E26D
:100410000F930E9427010F9108E00F930E9427017C
:100420000F9101E00F930E9427010F9132E00E948B
:10043000360206E00F930E9427010F910CE00F9304
:100440000E9427010F910027009364020093650228
:100450003F912F910F9108950F933F9305E00A95D7
:10046000F1F73A95D9F73F910F9108950F931F93A4
:100470003F93DF93CF930DEF309F012D0295007FC7
:10048000D02F002D0295102F007F1F70C02FD12B71
:100490002197F1F7CF91DF913F911F910F9108952F
:1004A0000F93FF93EF93BF93AF93DF93CF93DEB799
:1004B000CDB7EB85FC85AD85BE85059100300D93EC
:1004C000E1F7CF91DF91AF91BF91EF91FF910F9144
:0204D00008958D
:00000001FF
